{
  "contractName": "EthSwap",
  "abi": [
    {
      "inputs": [
        {
          "internalType": "contract Token",
          "name": "_token",
          "type": "address"
        }
      ],
      "payable": false,
      "stateMutability": "nonpayable",
      "type": "constructor"
    },
    {
      "anonymous": false,
      "inputs": [
        {
          "indexed": false,
          "internalType": "address",
          "name": "account",
          "type": "address"
        },
        {
          "indexed": false,
          "internalType": "address",
          "name": "token",
          "type": "address"
        },
        {
          "indexed": false,
          "internalType": "uint256",
          "name": "amount",
          "type": "uint256"
        },
        {
          "indexed": false,
          "internalType": "uint256",
          "name": "rate",
          "type": "uint256"
        },
        {
          "indexed": false,
          "internalType": "uint256",
          "name": "totalEth",
          "type": "uint256"
        },
        {
          "indexed": false,
          "internalType": "uint256",
          "name": "lastPurchaseTime",
          "type": "uint256"
        },
        {
          "indexed": false,
          "internalType": "uint256",
          "name": "amountBought",
          "type": "uint256"
        }
      ],
      "name": "TokensPurchased",
      "type": "event"
    },
    {
      "anonymous": false,
      "inputs": [
        {
          "indexed": false,
          "internalType": "address",
          "name": "account",
          "type": "address"
        },
        {
          "indexed": false,
          "internalType": "address",
          "name": "token",
          "type": "address"
        },
        {
          "indexed": false,
          "internalType": "uint256",
          "name": "amount",
          "type": "uint256"
        },
        {
          "indexed": false,
          "internalType": "uint256",
          "name": "rate",
          "type": "uint256"
        }
      ],
      "name": "TokensSold",
      "type": "event"
    },
    {
      "constant": true,
      "inputs": [],
      "name": "k",
      "outputs": [
        {
          "internalType": "uint256",
          "name": "",
          "type": "uint256"
        }
      ],
      "payable": false,
      "stateMutability": "view",
      "type": "function"
    },
    {
      "constant": true,
      "inputs": [],
      "name": "name",
      "outputs": [
        {
          "internalType": "string",
          "name": "",
          "type": "string"
        }
      ],
      "payable": false,
      "stateMutability": "view",
      "type": "function"
    },
    {
      "constant": true,
      "inputs": [],
      "name": "rate",
      "outputs": [
        {
          "internalType": "uint256",
          "name": "",
          "type": "uint256"
        }
      ],
      "payable": false,
      "stateMutability": "view",
      "type": "function"
    },
    {
      "constant": true,
      "inputs": [],
      "name": "token",
      "outputs": [
        {
          "internalType": "contract Token",
          "name": "",
          "type": "address"
        }
      ],
      "payable": false,
      "stateMutability": "view",
      "type": "function"
    },
    {
      "constant": true,
      "inputs": [],
      "name": "totalEth",
      "outputs": [
        {
          "internalType": "uint256",
          "name": "",
          "type": "uint256"
        }
      ],
      "payable": false,
      "stateMutability": "view",
      "type": "function"
    },
    {
      "constant": false,
      "inputs": [],
      "name": "buyTokens",
      "outputs": [],
      "payable": true,
      "stateMutability": "payable",
      "type": "function"
    },
    {
      "constant": true,
      "inputs": [
        {
          "internalType": "uint256",
          "name": "ethAmount",
          "type": "uint256"
        }
      ],
      "name": "getRate",
      "outputs": [
        {
          "internalType": "uint256",
          "name": "",
          "type": "uint256"
        }
      ],
      "payable": false,
      "stateMutability": "view",
      "type": "function"
    },
    {
      "constant": true,
      "inputs": [
        {
          "internalType": "uint256",
          "name": "tokenAmount",
          "type": "uint256"
        }
      ],
      "name": "getEthRate",
      "outputs": [
        {
          "internalType": "uint256",
          "name": "",
          "type": "uint256"
        }
      ],
      "payable": false,
      "stateMutability": "view",
      "type": "function"
    },
    {
      "constant": false,
      "inputs": [
        {
          "internalType": "uint256",
          "name": "_amount",
          "type": "uint256"
        }
      ],
      "name": "sellTokens",
      "outputs": [],
      "payable": false,
      "stateMutability": "nonpayable",
      "type": "function"
    }
  ],
  "bytecode": "0x60806040526040518060400160405280601681526020017f4175746f6d61746564204d61726b6574204d616b6572000000000000000000008152506000908051906020019062000051929190620000eb565b50683635c9adc5dea000006003553480156200006c57600080fd5b50604051620013c8380380620013c8833981810160405260208110156200009257600080fd5b810190808051906020019092919050505080600160006101000a81548173ffffffffffffffffffffffffffffffffffffffff021916908373ffffffffffffffffffffffffffffffffffffffff160217905550506200019a565b828054600181600116156101000203166002900490600052602060002090601f016020900481019282601f106200012e57805160ff19168380011785556200015f565b828001600101855582156200015f579182015b828111156200015e57825182559160200191906001019062000141565b5b5090506200016e919062000172565b5090565b6200019791905b808211156200019357600081600090555060010162000179565b5090565b90565b61121e80620001aa6000396000f3fe6080604052600436106100865760003560e01c8063577640941161005957806357764094146101c05780636c11bcd31461020f578063b4f40c611461024a578063d0febe4c14610275578063fc0c546a1461027f57610086565b806306fdde031461008b5780630859e8441461011b5780632c4e722e1461016a5780633c3c9c2314610195575b600080fd5b34801561009757600080fd5b506100a06102d6565b6040518080602001828103825283818151815260200191508051906020019080838360005b838110156100e05780820151818401526020810190506100c5565b50505050905090810190601f16801561010d5780820380516001836020036101000a031916815260200191505b509250505060405180910390f35b34801561012757600080fd5b506101546004803603602081101561013e57600080fd5b8101908080359060200190929190505050610374565b6040518082815260200191505060405180910390f35b34801561017657600080fd5b5061017f610495565b6040518082815260200191505060405180910390f35b3480156101a157600080fd5b506101aa61049b565b6040518082815260200191505060405180910390f35b3480156101cc57600080fd5b506101f9600480360360208110156101e357600080fd5b81019080803590602001909291905050506104a1565b6040518082815260200191505060405180910390f35b34801561021b57600080fd5b506102486004803603602081101561023257600080fd5b81019080803590602001909291905050506105c2565b005b34801561025657600080fd5b5061025f6109f9565b6040518082815260200191505060405180910390f35b61027d610a0f565b005b34801561028b57600080fd5b506102946111a1565b604051808273ffffffffffffffffffffffffffffffffffffffff1673ffffffffffffffffffffffffffffffffffffffff16815260200191505060405180910390f35b60008054600181600116156101000203166002900480601f01602080910402602001604051908101604052809291908181526020018280546001816001161561010002031660029004801561036c5780601f106103415761010080835404028352916020019161036c565b820191906000526020600020905b81548152906001019060200180831161034f57829003601f168201915b505050505081565b600080821461048b576000600160009054906101000a900473ffffffffffffffffffffffffffffffffffffffff1673ffffffffffffffffffffffffffffffffffffffff166370a08231306040518263ffffffff1660e01b8152600401808273ffffffffffffffffffffffffffffffffffffffff1673ffffffffffffffffffffffffffffffffffffffff16815260200191505060206040518083038186803b15801561041e57600080fd5b505afa158015610432573d6000803e3d6000fd5b505050506040513d602081101561044857600080fd5b81019080805190602001909291905050508301710b7abc627050305adf14a3d9e400000000008161047557fe5b0490506000816003540390508092505050610490565b600090505b919050565b60025481565b60035481565b60008082146105b85760006003548301710b7abc627050305adf14a3d9e40000000000816104cb57fe5b049050600081600160009054906101000a900473ffffffffffffffffffffffffffffffffffffffff1673ffffffffffffffffffffffffffffffffffffffff166370a08231306040518263ffffffff1660e01b8152600401808273ffffffffffffffffffffffffffffffffffffffff1673ffffffffffffffffffffffffffffffffffffffff16815260200191505060206040518083038186803b15801561057057600080fd5b505afa158015610584573d6000803e3d6000fd5b505050506040513d602081101561059a57600080fd5b810190808051906020019092919050505003905080925050506105bd565b600090505b919050565b600160009054906101000a900473ffffffffffffffffffffffffffffffffffffffff1673ffffffffffffffffffffffffffffffffffffffff166323b872dd3330846040518463ffffffff1660e01b8152600401808473ffffffffffffffffffffffffffffffffffffffff1673ffffffffffffffffffffffffffffffffffffffff1681526020018373ffffffffffffffffffffffffffffffffffffffff1673ffffffffffffffffffffffffffffffffffffffff1681526020018281526020019350505050602060405180830381600087803b15801561069f57600080fd5b505af11580156106b3573d6000803e3d6000fd5b505050506040513d60208110156106c957600080fd5b8101908080519060200190929190505050506000600160009054906101000a900473ffffffffffffffffffffffffffffffffffffffff1673ffffffffffffffffffffffffffffffffffffffff166370a08231306040518263ffffffff1660e01b8152600401808273ffffffffffffffffffffffffffffffffffffffff1673ffffffffffffffffffffffffffffffffffffffff16815260200191505060206040518083038186803b15801561077c57600080fd5b505afa158015610790573d6000803e3d6000fd5b505050506040513d60208110156107a657600080fd5b8101908080519060200190929190505050710b7abc627050305adf14a3d9e40000000000816107d157fe5b04905060008160035403905082600160009054906101000a900473ffffffffffffffffffffffffffffffffffffffff1673ffffffffffffffffffffffffffffffffffffffff166370a08231336040518263ffffffff1660e01b8152600401808273ffffffffffffffffffffffffffffffffffffffff1673ffffffffffffffffffffffffffffffffffffffff16815260200191505060206040518083038186803b15801561087d57600080fd5b505afa158015610891573d6000803e3d6000fd5b505050506040513d60208110156108a757600080fd5b810190808051906020019092919050505010156108c357600080fd5b8060035410156108d257600080fd5b3373ffffffffffffffffffffffffffffffffffffffff166108fc829081150290604051600060405180830381858888f19350505050158015610918573d6000803e3d6000fd5b50806003600082825403925050819055507f697c42d55a5e1fed3f464ec6f38b32546a0bd368dc8068b065c67566d73f329033600160009054906101000a900473ffffffffffffffffffffffffffffffffffffffff1685600254604051808573ffffffffffffffffffffffffffffffffffffffff1673ffffffffffffffffffffffffffffffffffffffff1681526020018473ffffffffffffffffffffffffffffffffffffffff1673ffffffffffffffffffffffffffffffffffffffff16815260200183815260200182815260200194505050505060405180910390a1505050565b710b7abc627050305adf14a3d9e4000000000081565b605a600460003373ffffffffffffffffffffffffffffffffffffffff1673ffffffffffffffffffffffffffffffffffffffff1681526020019081526020016000206000015410158015610aa8575062015180600460003373ffffffffffffffffffffffffffffffffffffffff1673ffffffffffffffffffffffffffffffffffffffff168152602001908152602001600020600101540142105b15610afe576040517f08c379a00000000000000000000000000000000000000000000000000000000081526004018080602001828103825260228152602001806111c86022913960400191505060405180910390fd5b62015180600460003373ffffffffffffffffffffffffffffffffffffffff1673ffffffffffffffffffffffffffffffffffffffff16815260200190815260200160002060010154014210610b95576000600460003373ffffffffffffffffffffffffffffffffffffffff1673ffffffffffffffffffffffffffffffffffffffff168152602001908152602001600020600001819055505b605a600460003373ffffffffffffffffffffffffffffffffffffffff1673ffffffffffffffffffffffffffffffffffffffff16815260200190815260200160002060000154108015610c3d5750605a670de0b6b3a76400003481610bf557fe5b04600460003373ffffffffffffffffffffffffffffffffffffffff1673ffffffffffffffffffffffffffffffffffffffff168152602001908152602001600020600001540111155b610caf576040517f08c379a000000000000000000000000000000000000000000000000000000000815260040180806020018281038252601f8152602001807f496e707574206578636565647320796f7572206461696c79206c696d6974210081525060200191505060405180910390fd5b346003600082825401925050819055506000600354710b7abc627050305adf14a3d9e4000000000081610cde57fe5b049050600081600160009054906101000a900473ffffffffffffffffffffffffffffffffffffffff1673ffffffffffffffffffffffffffffffffffffffff166370a08231306040518263ffffffff1660e01b8152600401808273ffffffffffffffffffffffffffffffffffffffff1673ffffffffffffffffffffffffffffffffffffffff16815260200191505060206040518083038186803b158015610d8357600080fd5b505afa158015610d97573d6000803e3d6000fd5b505050506040513d6020811015610dad57600080fd5b810190808051906020019092919050505003905080600160009054906101000a900473ffffffffffffffffffffffffffffffffffffffff1673ffffffffffffffffffffffffffffffffffffffff166370a08231306040518263ffffffff1660e01b8152600401808273ffffffffffffffffffffffffffffffffffffffff1673ffffffffffffffffffffffffffffffffffffffff16815260200191505060206040518083038186803b158015610e6157600080fd5b505afa158015610e75573d6000803e3d6000fd5b505050506040513d6020811015610e8b57600080fd5b81019080805190602001909291905050501015610ea757600080fd5b600160009054906101000a900473ffffffffffffffffffffffffffffffffffffffff1673ffffffffffffffffffffffffffffffffffffffff1663a9059cbb33836040518363ffffffff1660e01b8152600401808373ffffffffffffffffffffffffffffffffffffffff1673ffffffffffffffffffffffffffffffffffffffff16815260200182815260200192505050602060405180830381600087803b158015610f5057600080fd5b505af1158015610f64573d6000803e3d6000fd5b505050506040513d6020811015610f7a57600080fd5b81019080805190602001909291905050505042600460003373ffffffffffffffffffffffffffffffffffffffff1673ffffffffffffffffffffffffffffffffffffffff16815260200190815260200160002060010181905550670de0b6b3a76400003481610fe457fe5b04600460003373ffffffffffffffffffffffffffffffffffffffff1673ffffffffffffffffffffffffffffffffffffffff168152602001908152602001600020600001600082825401925050819055507ff476dda3e57b229a35e7c6da54dec7e1c58d1077bf6d7a60d08c5a3ec550b4ba33600160009054906101000a900473ffffffffffffffffffffffffffffffffffffffff1683600254600354600460003373ffffffffffffffffffffffffffffffffffffffff1673ffffffffffffffffffffffffffffffffffffffff16815260200190815260200160002060010154600460003373ffffffffffffffffffffffffffffffffffffffff1673ffffffffffffffffffffffffffffffffffffffff16815260200190815260200160002060000154604051808873ffffffffffffffffffffffffffffffffffffffff1673ffffffffffffffffffffffffffffffffffffffff1681526020018773ffffffffffffffffffffffffffffffffffffffff1673ffffffffffffffffffffffffffffffffffffffff16815260200186815260200185815260200184815260200183815260200182815260200197505050505050505060405180910390a15050565b600160009054906101000a900473ffffffffffffffffffffffffffffffffffffffff168156fe596f752068617665207265616368656420796f7572206461696c79206c696d697421a265627a7a72315820986aecec11f0ad63dbde3d3720ccf9cda087d86ef3450768dccf23f62c0beb3e64736f6c63430005100032",
  "source": "pragma solidity ^0.5.0;\r\n\r\nimport \"./Token.sol\";\r\n\r\ncontract EthSwap {\r\n  string public name = \"Automated Market Maker\";\r\n  Token public token;\r\n  uint public rate;\r\n  uint public totalEth = 1000000000000000000000;\r\n  uint constant public k = 1000000000000000000000 ** 2;\r\n\r\n  struct Buyer {\r\n    uint amountBought;\r\n    uint lastPurchaseTime;\r\n  }\r\n\r\n  mapping(address => Buyer) buyers;\r\n\r\n  event TokensPurchased(\r\n    address account,\r\n    address token,\r\n    uint amount,\r\n    uint rate,\r\n    uint totalEth,\r\n    uint lastPurchaseTime,\r\n    uint amountBought\r\n  );\r\n\r\n  event TokensSold(\r\n    address account,\r\n    address token,\r\n    uint amount,\r\n    uint rate\r\n  );\r\n\r\n  constructor(Token _token) public {\r\n    token = _token;\r\n  }\r\n\r\n  function buyTokens() public payable{\r\n    // If buyer has bought 90 tokens today, revert the transaction\r\n    if (buyers[msg.sender].amountBought >= 90 && now < (buyers[msg.sender].lastPurchaseTime + 1 days)) revert(\"You have reached your daily limit!\");\r\n    else if (now >= (buyers[msg.sender].lastPurchaseTime + 1 days)) {\r\n      // If 1 day has past, reset the user's amountBought\r\n      buyers[msg.sender].amountBought = 0; \r\n    } \r\n\r\n    require(buyers[msg.sender].amountBought < 90  && (buyers[msg.sender].amountBought + msg.value /1000000000000000000) <= 90, \"Input exceeds your daily limit!\");\r\n \r\n    // Increase ethereum amount from liquidity pool\r\n    totalEth += msg.value;\r\n\r\n    // Calculate the number of tokens to buy\r\n    uint tokenToRemain = k / totalEth;\r\n    uint tokenToGive = token.balanceOf(address(this)) - tokenToRemain;\r\n\r\n    // Require that EthSwap has enough tokens\r\n    require(token.balanceOf(address(this)) >= tokenToGive);\r\n\r\n    // Transfer tokens to the user\r\n    token.transfer(msg.sender, tokenToGive);\r\n  \r\n    buyers[msg.sender].lastPurchaseTime = now;\r\n    buyers[msg.sender].amountBought += msg.value/ 1000000000000000000;    \r\n\r\n    // Emit an event\r\n    emit TokensPurchased(msg.sender, address(token), tokenToGive, rate, totalEth, buyers[msg.sender].lastPurchaseTime, buyers[msg.sender].amountBought);\r\n  }\r\n\r\n  function getRate(uint ethAmount) public view returns(uint) {\r\n     if(ethAmount != 0){\r\n      uint tokenToRemain = k / (ethAmount + totalEth);\r\n      uint tokenToGive = token.balanceOf(address(this)) - tokenToRemain;\r\n      \r\n      return tokenToGive;\r\n     }\r\n    return 0;  \r\n  }  \r\n\r\n  function getEthRate(uint tokenAmount) public view returns(uint) {\r\n    if(tokenAmount != 0){\r\n    uint ethToRemain = k / (tokenAmount + token.balanceOf(address(this)));\r\n    uint ethToGive = totalEth - ethToRemain;\r\n    \r\n    return ethToGive;\r\n    }\r\n    return 0;  \r\n  }  \r\n\r\n  function sellTokens(uint _amount) public {\r\n    token.transferFrom(msg.sender, address(this), _amount);\r\n\r\n    // Calculate the number of tokens to buy\r\n    uint ethToRemain = k / token.balanceOf(address(this));\r\n    uint ethToGive = totalEth - ethToRemain;\r\n\r\n    // User cannot sell more token than they have\r\n    require(token.balanceOf(msg.sender) >= _amount);\r\n\r\n    // Require that EthSwap has enough Ether\r\n    require(totalEth >= ethToGive);\r\n\r\n    // Perform sale\r\n    msg.sender.transfer(ethToGive);\r\n\r\n    // Decrease ethereum amount from liquidity pool\r\n    totalEth -= ethToGive;\r\n\r\n    // Emit an event\r\n    emit TokensSold(msg.sender, address(token), _amount, rate);\r\n  }\r\n\r\n}\r\n",
  "sourcePath": "C:\\Users\\ooije\\Desktop\\Automated-Market-Maker\\src\\contracts\\EthSwap.sol",
  "compiler": {
    "name": "solc",
    "version": "0.5.16+commit.9c3226ce.Emscripten.clang"
  },
  "schemaVersion": "3.4.3",
  "updatedAt": "2021-12-13T06:03:28.712Z",
  "networkType": "ethereum",
  "devdoc": {
    "methods": {}
  },
  "userdoc": {
    "methods": {}
  }
}