{
  "contractName": "EthSwap",
  "abi": [
    {
      "inputs": [
        {
          "internalType": "contract Token",
          "name": "_token",
          "type": "address"
        }
      ],
      "payable": false,
      "stateMutability": "nonpayable",
      "type": "constructor"
    },
    {
      "anonymous": false,
      "inputs": [
        {
          "indexed": false,
          "internalType": "address",
          "name": "account",
          "type": "address"
        },
        {
          "indexed": false,
          "internalType": "address",
          "name": "token",
          "type": "address"
        },
        {
          "indexed": false,
          "internalType": "uint256",
          "name": "amount",
          "type": "uint256"
        },
        {
          "indexed": false,
          "internalType": "uint256",
          "name": "rate",
          "type": "uint256"
        },
        {
          "indexed": false,
          "internalType": "uint256",
          "name": "totalEth",
          "type": "uint256"
        }
      ],
      "name": "TokensPurchased",
      "type": "event"
    },
    {
      "anonymous": false,
      "inputs": [
        {
          "indexed": false,
          "internalType": "address",
          "name": "account",
          "type": "address"
        },
        {
          "indexed": false,
          "internalType": "address",
          "name": "token",
          "type": "address"
        },
        {
          "indexed": false,
          "internalType": "uint256",
          "name": "amount",
          "type": "uint256"
        },
        {
          "indexed": false,
          "internalType": "uint256",
          "name": "rate",
          "type": "uint256"
        }
      ],
      "name": "TokensSold",
      "type": "event"
    },
    {
      "constant": true,
      "inputs": [],
      "name": "k",
      "outputs": [
        {
          "internalType": "uint256",
          "name": "",
          "type": "uint256"
        }
      ],
      "payable": false,
      "stateMutability": "view",
      "type": "function"
    },
    {
      "constant": true,
      "inputs": [],
      "name": "name",
      "outputs": [
        {
          "internalType": "string",
          "name": "",
          "type": "string"
        }
      ],
      "payable": false,
      "stateMutability": "view",
      "type": "function"
    },
    {
      "constant": true,
      "inputs": [],
      "name": "rate",
      "outputs": [
        {
          "internalType": "uint256",
          "name": "",
          "type": "uint256"
        }
      ],
      "payable": false,
      "stateMutability": "view",
      "type": "function"
    },
    {
      "constant": true,
      "inputs": [],
      "name": "token",
      "outputs": [
        {
          "internalType": "contract Token",
          "name": "",
          "type": "address"
        }
      ],
      "payable": false,
      "stateMutability": "view",
      "type": "function"
    },
    {
      "constant": true,
      "inputs": [],
      "name": "totalEth",
      "outputs": [
        {
          "internalType": "uint256",
          "name": "",
          "type": "uint256"
        }
      ],
      "payable": false,
      "stateMutability": "view",
      "type": "function"
    },
    {
      "constant": false,
      "inputs": [],
      "name": "buyTokens",
      "outputs": [],
      "payable": true,
      "stateMutability": "payable",
      "type": "function"
    },
    {
      "constant": true,
      "inputs": [
        {
          "internalType": "uint256",
          "name": "ethAmount",
          "type": "uint256"
        }
      ],
      "name": "getRate",
      "outputs": [
        {
          "internalType": "uint256",
          "name": "",
          "type": "uint256"
        }
      ],
      "payable": false,
      "stateMutability": "view",
      "type": "function"
    },
    {
      "constant": false,
      "inputs": [
        {
          "internalType": "uint256",
          "name": "_amount",
          "type": "uint256"
        }
      ],
      "name": "sellTokens",
      "outputs": [],
      "payable": false,
      "stateMutability": "nonpayable",
      "type": "function"
    }
  ],
  "bytecode": "0x60806040526040518060400160405280601881526020017f4574685377617020496e7374616e742045786368616e676500000000000000008152506000908051906020019061004f9291906100e4565b50683635c9adc5dea0000060035534801561006957600080fd5b50604051610d5f380380610d5f8339818101604052602081101561008c57600080fd5b810190808051906020019092919050505080600160006101000a81548173ffffffffffffffffffffffffffffffffffffffff021916908373ffffffffffffffffffffffffffffffffffffffff16021790555050610189565b828054600181600116156101000203166002900490600052602060002090601f016020900481019282601f1061012557805160ff1916838001178555610153565b82800160010185558215610153579182015b82811115610152578251825591602001919060010190610137565b5b5090506101609190610164565b5090565b61018691905b8082111561018257600081600090555060010161016a565b5090565b90565b610bc7806101986000396000f3fe60806040526004361061007b5760003560e01c80636c11bcd31161004e5780636c11bcd3146101b5578063b4f40c61146101f0578063d0febe4c1461021b578063fc0c546a146102255761007b565b806306fdde03146100805780632c4e722e146101105780633c3c9c231461013b5780635776409414610166575b600080fd5b34801561008c57600080fd5b5061009561027c565b6040518080602001828103825283818151815260200191508051906020019080838360005b838110156100d55780820151818401526020810190506100ba565b50505050905090810190601f1680156101025780820380516001836020036101000a031916815260200191505b509250505060405180910390f35b34801561011c57600080fd5b5061012561031a565b6040518082815260200191505060405180910390f35b34801561014757600080fd5b50610150610320565b6040518082815260200191505060405180910390f35b34801561017257600080fd5b5061019f6004803603602081101561018957600080fd5b8101908080359060200190929190505050610326565b6040518082815260200191505060405180910390f35b3480156101c157600080fd5b506101ee600480360360208110156101d857600080fd5b8101908080359060200190929190505050610447565b005b3480156101fc57600080fd5b506102056107a0565b6040518082815260200191505060405180910390f35b6102236107b6565b005b34801561023157600080fd5b5061023a610b6c565b604051808273ffffffffffffffffffffffffffffffffffffffff1673ffffffffffffffffffffffffffffffffffffffff16815260200191505060405180910390f35b60008054600181600116156101000203166002900480601f0160208091040260200160405190810160405280929190818152602001828054600181600116156101000203166002900480156103125780601f106102e757610100808354040283529160200191610312565b820191906000526020600020905b8154815290600101906020018083116102f557829003601f168201915b505050505081565b60025481565b60035481565b600080821461043d5760006003548301710b7abc627050305adf14a3d9e400000000008161035057fe5b049050600081600160009054906101000a900473ffffffffffffffffffffffffffffffffffffffff1673ffffffffffffffffffffffffffffffffffffffff166370a08231306040518263ffffffff1660e01b8152600401808273ffffffffffffffffffffffffffffffffffffffff1673ffffffffffffffffffffffffffffffffffffffff16815260200191505060206040518083038186803b1580156103f557600080fd5b505afa158015610409573d6000803e3d6000fd5b505050506040513d602081101561041f57600080fd5b81019080805190602001909291905050500390508092505050610442565b600090505b919050565b80600160009054906101000a900473ffffffffffffffffffffffffffffffffffffffff1673ffffffffffffffffffffffffffffffffffffffff166370a08231336040518263ffffffff1660e01b8152600401808273ffffffffffffffffffffffffffffffffffffffff1673ffffffffffffffffffffffffffffffffffffffff16815260200191505060206040518083038186803b1580156104e757600080fd5b505afa1580156104fb573d6000803e3d6000fd5b505050506040513d602081101561051157600080fd5b8101908080519060200190929190505050101561052d57600080fd5b6000600254828161053a57fe5b049050803073ffffffffffffffffffffffffffffffffffffffff1631101561056157600080fd5b600160009054906101000a900473ffffffffffffffffffffffffffffffffffffffff1673ffffffffffffffffffffffffffffffffffffffff166323b872dd3330856040518463ffffffff1660e01b8152600401808473ffffffffffffffffffffffffffffffffffffffff1673ffffffffffffffffffffffffffffffffffffffff1681526020018373ffffffffffffffffffffffffffffffffffffffff1673ffffffffffffffffffffffffffffffffffffffff1681526020018281526020019350505050602060405180830381600087803b15801561063e57600080fd5b505af1158015610652573d6000803e3d6000fd5b505050506040513d602081101561066857600080fd5b8101908080519060200190929190505050503373ffffffffffffffffffffffffffffffffffffffff166108fc829081150290604051600060405180830381858888f193505050501580156106c0573d6000803e3d6000fd5b50806003600082825403925050819055507f697c42d55a5e1fed3f464ec6f38b32546a0bd368dc8068b065c67566d73f329033600160009054906101000a900473ffffffffffffffffffffffffffffffffffffffff1684600254604051808573ffffffffffffffffffffffffffffffffffffffff1673ffffffffffffffffffffffffffffffffffffffff1681526020018473ffffffffffffffffffffffffffffffffffffffff1673ffffffffffffffffffffffffffffffffffffffff16815260200183815260200182815260200194505050505060405180910390a15050565b710b7abc627050305adf14a3d9e4000000000081565b346003600082825401925050819055506000600354710b7abc627050305adf14a3d9e40000000000816107e557fe5b049050600081600160009054906101000a900473ffffffffffffffffffffffffffffffffffffffff1673ffffffffffffffffffffffffffffffffffffffff166370a08231306040518263ffffffff1660e01b8152600401808273ffffffffffffffffffffffffffffffffffffffff1673ffffffffffffffffffffffffffffffffffffffff16815260200191505060206040518083038186803b15801561088a57600080fd5b505afa15801561089e573d6000803e3d6000fd5b505050506040513d60208110156108b457600080fd5b810190808051906020019092919050505003905080600160009054906101000a900473ffffffffffffffffffffffffffffffffffffffff1673ffffffffffffffffffffffffffffffffffffffff166370a08231306040518263ffffffff1660e01b8152600401808273ffffffffffffffffffffffffffffffffffffffff1673ffffffffffffffffffffffffffffffffffffffff16815260200191505060206040518083038186803b15801561096857600080fd5b505afa15801561097c573d6000803e3d6000fd5b505050506040513d602081101561099257600080fd5b810190808051906020019092919050505010156109ae57600080fd5b600160009054906101000a900473ffffffffffffffffffffffffffffffffffffffff1673ffffffffffffffffffffffffffffffffffffffff1663a9059cbb33836040518363ffffffff1660e01b8152600401808373ffffffffffffffffffffffffffffffffffffffff1673ffffffffffffffffffffffffffffffffffffffff16815260200182815260200192505050602060405180830381600087803b158015610a5757600080fd5b505af1158015610a6b573d6000803e3d6000fd5b505050506040513d6020811015610a8157600080fd5b8101908080519060200190929190505050507f377aadedb6b2a771959584d10a6a36eccb5f56b4eb3a48525f76108d2660d8d433600160009054906101000a900473ffffffffffffffffffffffffffffffffffffffff1683600254600354604051808673ffffffffffffffffffffffffffffffffffffffff1673ffffffffffffffffffffffffffffffffffffffff1681526020018573ffffffffffffffffffffffffffffffffffffffff1673ffffffffffffffffffffffffffffffffffffffff1681526020018481526020018381526020018281526020019550505050505060405180910390a15050565b600160009054906101000a900473ffffffffffffffffffffffffffffffffffffffff168156fea265627a7a72315820117a99862ae65ec258c5d22b7564183cd01e8846db6432d88def954ec408582364736f6c63430005100032",
  "source": "pragma solidity ^0.5.0;\r\n\r\nimport \"./Token.sol\";\r\n\r\ncontract EthSwap {\r\n  string public name = \"EthSwap Instant Exchange\";\r\n  Token public token;\r\n  uint public rate;\r\n  uint public totalEth = 1000000000000000000000;\r\n  uint constant public k = 1000000000000000000000 ** 2;\r\n\r\n  event TokensPurchased(\r\n    address account,\r\n    address token,\r\n    uint amount,\r\n    uint rate,\r\n    uint totalEth\r\n  );\r\n\r\n  event TokensSold(\r\n    address account,\r\n    address token,\r\n    uint amount,\r\n    uint rate\r\n  );\r\n\r\n  constructor(Token _token) public {\r\n    token = _token;\r\n  }\r\n\r\n  function buyTokens() public payable {\r\n    // Increase ethereum amount from liquidity pool\r\n    totalEth += msg.value;\r\n\r\n    // Calculate the number of tokens to buy\r\n    // uint tokenAmount = msg.value * rate;\r\n    uint tokenToRemain = k / totalEth;\r\n    uint tokenToGive = token.balanceOf(address(this)) - tokenToRemain;\r\n\r\n    // Require that EthSwap has enough tokens\r\n    // require(token.balanceOf(address(this)) >= tokenAmount);\r\n    require(token.balanceOf(address(this)) >= tokenToGive);\r\n\r\n    // Transfer tokens to the user\r\n    token.transfer(msg.sender, tokenToGive);\r\n\r\n    \r\n    // Emit an event\r\n    emit TokensPurchased(msg.sender, address(token), tokenToGive, rate, totalEth);\r\n  }\r\n\r\n  function getRate(uint ethAmount) public view returns(uint) {\r\n     if(ethAmount != 0){\r\n      uint tokenToRemain = k / (ethAmount + totalEth);\r\n      uint tokenToGive = token.balanceOf(address(this)) - tokenToRemain;\r\n      \r\n      return tokenToGive;\r\n     }\r\n    return 0;  \r\n  }  \r\n\r\n  function sellTokens(uint _amount) public {\r\n    // User can't sell more tokens than they have\r\n    require(token.balanceOf(msg.sender) >= _amount);\r\n\r\n    // Calculate the amount of Ether to redeem\r\n    uint etherAmount = _amount / rate;\r\n\r\n    // Require that EthSwap has enough Ether\r\n    require(address(this).balance >= etherAmount);\r\n\r\n    // Perform sale\r\n    token.transferFrom(msg.sender, address(this), _amount);\r\n    msg.sender.transfer(etherAmount);\r\n\r\n     // Decrease ethereum amount from liquidity pool\r\n    totalEth -= etherAmount;\r\n\r\n    // Emit an event\r\n    emit TokensSold(msg.sender, address(token), _amount, rate);\r\n  }\r\n\r\n}\r\n",
  "sourcePath": "C:\\Users\\Asus\\Desktop\\Automated-Market-Maker\\src\\contracts\\EthSwap.sol",
  "compiler": {
    "name": "solc",
    "version": "0.5.16+commit.9c3226ce.Emscripten.clang"
  },
  "schemaVersion": "3.4.3",
  "updatedAt": "2021-12-12T09:11:10.743Z",
  "networkType": "ethereum",
  "devdoc": {
    "methods": {}
  },
  "userdoc": {
    "methods": {}
  }
}