{
  "contractName": "EthSwap",
  "abi": [
    {
      "inputs": [
        {
          "internalType": "contract Token",
          "name": "_token",
          "type": "address"
        }
      ],
      "payable": false,
      "stateMutability": "nonpayable",
      "type": "constructor"
    },
    {
      "anonymous": false,
      "inputs": [
        {
          "indexed": false,
          "internalType": "address",
          "name": "account",
          "type": "address"
        },
        {
          "indexed": false,
          "internalType": "address",
          "name": "token",
          "type": "address"
        },
        {
          "indexed": false,
          "internalType": "uint256",
          "name": "amount",
          "type": "uint256"
        },
        {
          "indexed": false,
          "internalType": "uint256",
          "name": "rate",
          "type": "uint256"
        },
        {
          "indexed": false,
          "internalType": "uint256",
          "name": "totalEth",
          "type": "uint256"
        },
        {
          "indexed": false,
          "internalType": "uint256",
          "name": "lastPurchaseTime",
          "type": "uint256"
        },
        {
          "indexed": false,
          "internalType": "uint256",
          "name": "amountBought",
          "type": "uint256"
        }
      ],
      "name": "TokensPurchased",
      "type": "event"
    },
    {
      "anonymous": false,
      "inputs": [
        {
          "indexed": false,
          "internalType": "address",
          "name": "account",
          "type": "address"
        },
        {
          "indexed": false,
          "internalType": "address",
          "name": "token",
          "type": "address"
        },
        {
          "indexed": false,
          "internalType": "uint256",
          "name": "amount",
          "type": "uint256"
        },
        {
          "indexed": false,
          "internalType": "uint256",
          "name": "rate",
          "type": "uint256"
        }
      ],
      "name": "TokensSold",
      "type": "event"
    },
    {
      "constant": true,
      "inputs": [],
      "name": "k",
      "outputs": [
        {
          "internalType": "uint256",
          "name": "",
          "type": "uint256"
        }
      ],
      "payable": false,
      "stateMutability": "view",
      "type": "function"
    },
    {
      "constant": true,
      "inputs": [],
      "name": "name",
      "outputs": [
        {
          "internalType": "string",
          "name": "",
          "type": "string"
        }
      ],
      "payable": false,
      "stateMutability": "view",
      "type": "function"
    },
    {
      "constant": true,
      "inputs": [],
      "name": "rate",
      "outputs": [
        {
          "internalType": "uint256",
          "name": "",
          "type": "uint256"
        }
      ],
      "payable": false,
      "stateMutability": "view",
      "type": "function"
    },
    {
      "constant": true,
      "inputs": [],
      "name": "token",
      "outputs": [
        {
          "internalType": "contract Token",
          "name": "",
          "type": "address"
        }
      ],
      "payable": false,
      "stateMutability": "view",
      "type": "function"
    },
    {
      "constant": true,
      "inputs": [],
      "name": "totalEth",
      "outputs": [
        {
          "internalType": "uint256",
          "name": "",
          "type": "uint256"
        }
      ],
      "payable": false,
      "stateMutability": "view",
      "type": "function"
    },
    {
      "constant": false,
      "inputs": [],
      "name": "buyTokens",
      "outputs": [],
      "payable": true,
      "stateMutability": "payable",
      "type": "function"
    },
    {
      "constant": true,
      "inputs": [
        {
          "internalType": "uint256",
          "name": "ethAmount",
          "type": "uint256"
        }
      ],
      "name": "getRate",
      "outputs": [
        {
          "internalType": "uint256",
          "name": "",
          "type": "uint256"
        }
      ],
      "payable": false,
      "stateMutability": "view",
      "type": "function"
    }
  ],
  "bytecode": "0x60806040526040518060400160405280601681526020017f4175746f6d61746564204d61726b6574204d616b6572000000000000000000008152506000908051906020019061004f9291906100e4565b50683635c9adc5dea0000060035534801561006957600080fd5b50604051610dbe380380610dbe8339818101604052602081101561008c57600080fd5b810190808051906020019092919050505080600160006101000a81548173ffffffffffffffffffffffffffffffffffffffff021916908373ffffffffffffffffffffffffffffffffffffffff16021790555050610189565b828054600181600116156101000203166002900490600052602060002090601f016020900481019282601f1061012557805160ff1916838001178555610153565b82800160010185558215610153579182015b82811115610152578251825591602001919060010190610137565b5b5090506101609190610164565b5090565b61018691905b8082111561018257600081600090555060010161016a565b5090565b90565b610c26806101986000396000f3fe6080604052600436106100705760003560e01c8063577640941161004e578063577640941461015b578063b4f40c61146101aa578063d0febe4c146101d5578063fc0c546a146101df57610070565b806306fdde03146100755780632c4e722e146101055780633c3c9c2314610130575b600080fd5b34801561008157600080fd5b5061008a610236565b6040518080602001828103825283818151815260200191508051906020019080838360005b838110156100ca5780820151818401526020810190506100af565b50505050905090810190601f1680156100f75780820380516001836020036101000a031916815260200191505b509250505060405180910390f35b34801561011157600080fd5b5061011a6102d4565b6040518082815260200191505060405180910390f35b34801561013c57600080fd5b506101456102da565b6040518082815260200191505060405180910390f35b34801561016757600080fd5b506101946004803603602081101561017e57600080fd5b81019080803590602001909291905050506102e0565b6040518082815260200191505060405180910390f35b3480156101b657600080fd5b506101bf610401565b6040518082815260200191505060405180910390f35b6101dd610417565b005b3480156101eb57600080fd5b506101f4610ba9565b604051808273ffffffffffffffffffffffffffffffffffffffff1673ffffffffffffffffffffffffffffffffffffffff16815260200191505060405180910390f35b60008054600181600116156101000203166002900480601f0160208091040260200160405190810160405280929190818152602001828054600181600116156101000203166002900480156102cc5780601f106102a1576101008083540402835291602001916102cc565b820191906000526020600020905b8154815290600101906020018083116102af57829003601f168201915b505050505081565b60025481565b60035481565b60008082146103f75760006003548301710b7abc627050305adf14a3d9e400000000008161030a57fe5b049050600081600160009054906101000a900473ffffffffffffffffffffffffffffffffffffffff1673ffffffffffffffffffffffffffffffffffffffff166370a08231306040518263ffffffff1660e01b8152600401808273ffffffffffffffffffffffffffffffffffffffff1673ffffffffffffffffffffffffffffffffffffffff16815260200191505060206040518083038186803b1580156103af57600080fd5b505afa1580156103c3573d6000803e3d6000fd5b505050506040513d60208110156103d957600080fd5b810190808051906020019092919050505003905080925050506103fc565b600090505b919050565b710b7abc627050305adf14a3d9e4000000000081565b605a600460003373ffffffffffffffffffffffffffffffffffffffff1673ffffffffffffffffffffffffffffffffffffffff16815260200190815260200160002060000154101580156104b0575062015180600460003373ffffffffffffffffffffffffffffffffffffffff1673ffffffffffffffffffffffffffffffffffffffff168152602001908152602001600020600101540142105b15610506576040517f08c379a0000000000000000000000000000000000000000000000000000000008152600401808060200182810382526022815260200180610bd06022913960400191505060405180910390fd5b62015180600460003373ffffffffffffffffffffffffffffffffffffffff1673ffffffffffffffffffffffffffffffffffffffff1681526020019081526020016000206001015401421061059d576000600460003373ffffffffffffffffffffffffffffffffffffffff1673ffffffffffffffffffffffffffffffffffffffff168152602001908152602001600020600001819055505b605a600460003373ffffffffffffffffffffffffffffffffffffffff1673ffffffffffffffffffffffffffffffffffffffff168152602001908152602001600020600001541080156106455750605a670de0b6b3a764000034816105fd57fe5b04600460003373ffffffffffffffffffffffffffffffffffffffff1673ffffffffffffffffffffffffffffffffffffffff168152602001908152602001600020600001540111155b6106b7576040517f08c379a000000000000000000000000000000000000000000000000000000000815260040180806020018281038252601f8152602001807f496e707574206578636565647320796f7572206461696c79206c696d6974210081525060200191505060405180910390fd5b346003600082825401925050819055506000600354710b7abc627050305adf14a3d9e40000000000816106e657fe5b049050600081600160009054906101000a900473ffffffffffffffffffffffffffffffffffffffff1673ffffffffffffffffffffffffffffffffffffffff166370a08231306040518263ffffffff1660e01b8152600401808273ffffffffffffffffffffffffffffffffffffffff1673ffffffffffffffffffffffffffffffffffffffff16815260200191505060206040518083038186803b15801561078b57600080fd5b505afa15801561079f573d6000803e3d6000fd5b505050506040513d60208110156107b557600080fd5b810190808051906020019092919050505003905080600160009054906101000a900473ffffffffffffffffffffffffffffffffffffffff1673ffffffffffffffffffffffffffffffffffffffff166370a08231306040518263ffffffff1660e01b8152600401808273ffffffffffffffffffffffffffffffffffffffff1673ffffffffffffffffffffffffffffffffffffffff16815260200191505060206040518083038186803b15801561086957600080fd5b505afa15801561087d573d6000803e3d6000fd5b505050506040513d602081101561089357600080fd5b810190808051906020019092919050505010156108af57600080fd5b600160009054906101000a900473ffffffffffffffffffffffffffffffffffffffff1673ffffffffffffffffffffffffffffffffffffffff1663a9059cbb33836040518363ffffffff1660e01b8152600401808373ffffffffffffffffffffffffffffffffffffffff1673ffffffffffffffffffffffffffffffffffffffff16815260200182815260200192505050602060405180830381600087803b15801561095857600080fd5b505af115801561096c573d6000803e3d6000fd5b505050506040513d602081101561098257600080fd5b81019080805190602001909291905050505042600460003373ffffffffffffffffffffffffffffffffffffffff1673ffffffffffffffffffffffffffffffffffffffff16815260200190815260200160002060010181905550670de0b6b3a764000034816109ec57fe5b04600460003373ffffffffffffffffffffffffffffffffffffffff1673ffffffffffffffffffffffffffffffffffffffff168152602001908152602001600020600001600082825401925050819055507ff476dda3e57b229a35e7c6da54dec7e1c58d1077bf6d7a60d08c5a3ec550b4ba33600160009054906101000a900473ffffffffffffffffffffffffffffffffffffffff1683600254600354600460003373ffffffffffffffffffffffffffffffffffffffff1673ffffffffffffffffffffffffffffffffffffffff16815260200190815260200160002060010154600460003373ffffffffffffffffffffffffffffffffffffffff1673ffffffffffffffffffffffffffffffffffffffff16815260200190815260200160002060000154604051808873ffffffffffffffffffffffffffffffffffffffff1673ffffffffffffffffffffffffffffffffffffffff1681526020018773ffffffffffffffffffffffffffffffffffffffff1673ffffffffffffffffffffffffffffffffffffffff16815260200186815260200185815260200184815260200183815260200182815260200197505050505050505060405180910390a15050565b600160009054906101000a900473ffffffffffffffffffffffffffffffffffffffff168156fe596f752068617665207265616368656420796f7572206461696c79206c696d697421a265627a7a723158204b43a228d8e3174698dd6245b09d2b13d8ff170db82a2ffe6365718b5aeab41c64736f6c63430005100032",
  "source": "pragma solidity ^0.5.0;\r\n\r\nimport \"./Token.sol\";\r\n\r\ncontract EthSwap {\r\n  string public name = \"Automated Market Maker\";\r\n  Token public token;\r\n  uint public rate;\r\n  uint public totalEth = 1000000000000000000000;\r\n  uint constant public k = 1000000000000000000000 ** 2;\r\n\r\n  struct Buyer {\r\n    uint amountBought;\r\n    uint lastPurchaseTime;\r\n  }\r\n\r\n  mapping(address => Buyer) buyers;\r\n\r\n  event TokensPurchased(\r\n    address account,\r\n    address token,\r\n    uint amount,\r\n    uint rate,\r\n    uint totalEth,\r\n    uint lastPurchaseTime,\r\n    uint amountBought\r\n  );\r\n\r\n  event TokensSold(\r\n    address account,\r\n    address token,\r\n    uint amount,\r\n    uint rate\r\n  );\r\n\r\n  constructor(Token _token) public {\r\n    token = _token;\r\n  }\r\n\r\n  function buyTokens() public payable{\r\n    // If buyer has bought 90 tokens today, revert the transaction\r\n    if (buyers[msg.sender].amountBought >= 90 && now < (buyers[msg.sender].lastPurchaseTime + 1 days)) revert(\"You have reached your daily limit!\");\r\n    else if (now >= (buyers[msg.sender].lastPurchaseTime + 1 days)) {\r\n      // If 1 day has past, reset the user's amountBought\r\n      buyers[msg.sender].amountBought = 0; \r\n    } \r\n\r\n    require(buyers[msg.sender].amountBought < 90  && (buyers[msg.sender].amountBought + msg.value /1000000000000000000) <= 90, \"Input exceeds your daily limit!\");\r\n \r\n    // Increase ethereum amount from liquidity pool\r\n    totalEth += msg.value;\r\n\r\n    // Calculate the number of tokens to buy\r\n    uint tokenToRemain = k / totalEth;\r\n    uint tokenToGive = token.balanceOf(address(this)) - tokenToRemain;\r\n\r\n    // Require that EthSwap has enough tokens\r\n    require(token.balanceOf(address(this)) >= tokenToGive);\r\n\r\n    // Transfer tokens to the user\r\n    token.transfer(msg.sender, tokenToGive);\r\n  \r\n    buyers[msg.sender].lastPurchaseTime = now;\r\n    buyers[msg.sender].amountBought += msg.value/ 1000000000000000000;    \r\n\r\n    // Emit an event\r\n    emit TokensPurchased(msg.sender, address(token), tokenToGive, rate, totalEth, buyers[msg.sender].lastPurchaseTime, buyers[msg.sender].amountBought);\r\n  }\r\n\r\n  function getRate(uint ethAmount) public view returns(uint) {\r\n     if(ethAmount != 0){\r\n      uint tokenToRemain = k / (ethAmount + totalEth);\r\n      uint tokenToGive = token.balanceOf(address(this)) - tokenToRemain;\r\n      \r\n      return tokenToGive;\r\n     }\r\n    return 0;  \r\n  }  \r\n\r\n  // function sellTokens(uint _amount) public {\r\n  //   // User can't sell more tokens than they have\r\n  //   require(token.balanceOf(msg.sender) >= _amount);\r\n\r\n  //   // Calculate the amount of Ether to redeem\r\n  //   uint etherAmount = _amount / rate;\r\n\r\n  //   // Require that EthSwap has enough Ether\r\n  //   require(address(this).balance >= etherAmount);\r\n\r\n  //   // Perform sale\r\n  //   token.transferFrom(msg.sender, address(this), _amount);\r\n  //   msg.sender.transfer(etherAmount);\r\n\r\n  //    // Decrease ethereum amount from liquidity pool\r\n  //   totalEth -= etherAmount;\r\n\r\n  //   // Emit an event\r\n  //   emit TokensSold(msg.sender, address(token), _amount, rate);\r\n  // }\r\n\r\n}\r\n",
  "sourcePath": "C:\\Users\\ooije\\Desktop\\Automated-Market-Maker\\src\\contracts\\EthSwap.sol",
  "compiler": {
    "name": "solc",
    "version": "0.5.16+commit.9c3226ce.Emscripten.clang"
  },
  "schemaVersion": "3.4.3",
  "updatedAt": "2021-12-13T02:09:42.772Z",
  "networkType": "ethereum",
  "devdoc": {
    "methods": {}
  },
  "userdoc": {
    "methods": {}
  }
}